{
  "contractName": "Crowdfunding",
  "abi": [
    {
      "inputs": [
        {
          "internalType": "uint256",
          "name": "reqida",
          "type": "uint256"
        },
        {
          "internalType": "uint256",
          "name": "policyida",
          "type": "uint256"
        },
        {
          "internalType": "uint256",
          "name": "userida",
          "type": "uint256"
        },
        {
          "internalType": "uint256",
          "name": "amounta",
          "type": "uint256"
        },
        {
          "internalType": "string",
          "name": "datea",
          "type": "string"
        }
      ],
      "name": "addTransaction",
      "outputs": [],
      "stateMutability": "nonpayable",
      "type": "function"
    },
    {
      "inputs": [
        {
          "internalType": "uint256",
          "name": "reqid",
          "type": "uint256"
        }
      ],
      "name": "viewTransaction",
      "outputs": [
        {
          "internalType": "uint256",
          "name": "",
          "type": "uint256"
        },
        {
          "internalType": "uint256",
          "name": "",
          "type": "uint256"
        },
        {
          "internalType": "uint256",
          "name": "",
          "type": "uint256"
        },
        {
          "internalType": "string",
          "name": "",
          "type": "string"
        }
      ],
      "stateMutability": "view",
      "type": "function"
    }
  ],
  "bytecode": "0x6080604052600060015534801561001557600080fd5b506109a0806100256000396000f3fe608060405234801561001057600080fd5b50600436106100365760003560e01c80638916d12c1461003b578063baa9fdcd1461006e575b600080fd5b61005560048036038101906100509190610302565b61008a565b60405161006594939291906103ce565b60405180910390f35b6100886004803603810190610083919061054f565b610219565b005b6000806000606060005b6000805490508110156101cd5760008082815481106100b6576100b56105e6565b5b90600052602060002090600502016040518060a00160405290816000820154815260200160018201548152602001600282015481526020016003820154815260200160048201805461010790610644565b80601f016020809104026020016040519081016040528092919081815260200182805461013390610644565b80156101805780601f1061015557610100808354040283529160200191610180565b820191906000526020600020905b81548152906001019060200180831161016357829003601f168201915b5050505050815250509050868160000151036101b957806020015181604001518260600151836080015195509550955095505050610212565b5080806101c5906106a4565b915050610094565b60008060006040518060400160405280600181526020017f30000000000000000000000000000000000000000000000000000000000000008152509450945094509450505b9193509193565b60006040518060a0016040528087815260200186815260200185815260200184815260200183815250905060008190806001815401808255809150506001900390600052602060002090600502016000909190919091506000820151816000015560208201518160010155604082015181600201556060820151816003015560808201518160040190816102ad9190610898565b505050505050505050565b6000604051905090565b600080fd5b600080fd5b6000819050919050565b6102df816102cc565b81146102ea57600080fd5b50565b6000813590506102fc816102d6565b92915050565b600060208284031215610318576103176102c2565b5b6000610326848285016102ed565b91505092915050565b610338816102cc565b82525050565b600081519050919050565b600082825260208201905092915050565b60005b8381101561037857808201518184015260208101905061035d565b60008484015250505050565b6000601f19601f8301169050919050565b60006103a08261033e565b6103aa8185610349565b93506103ba81856020860161035a565b6103c381610384565b840191505092915050565b60006080820190506103e3600083018761032f565b6103f0602083018661032f565b6103fd604083018561032f565b818103606083015261040f8184610395565b905095945050505050565b600080fd5b600080fd5b7f4e487b7100000000000000000000000000000000000000000000000000000000600052604160045260246000fd5b61045c82610384565b810181811067ffffffffffffffff8211171561047b5761047a610424565b5b80604052505050565b600061048e6102b8565b905061049a8282610453565b919050565b600067ffffffffffffffff8211156104ba576104b9610424565b5b6104c382610384565b9050602081019050919050565b82818337600083830152505050565b60006104f26104ed8461049f565b610484565b90508281526020810184848401111561050e5761050d61041f565b5b6105198482856104d0565b509392505050565b600082601f8301126105365761053561041a565b5b81356105468482602086016104df565b91505092915050565b600080600080600060a0868803121561056b5761056a6102c2565b5b6000610579888289016102ed565b955050602061058a888289016102ed565b945050604061059b888289016102ed565b93505060606105ac888289016102ed565b925050608086013567ffffffffffffffff8111156105cd576105cc6102c7565b5b6105d988828901610521565b9150509295509295909350565b7f4e487b7100000000000000000000000000000000000000000000000000000000600052603260045260246000fd5b7f4e487b7100000000000000000000000000000000000000000000000000000000600052602260045260246000fd5b6000600282049050600182168061065c57607f821691505b60208210810361066f5761066e610615565b5b50919050565b7f4e487b7100000000000000000000000000000000000000000000000000000000600052601160045260246000fd5b60006106af826102cc565b91507fffffffffffffffffffffffffffffffffffffffffffffffffffffffffffffffff82036106e1576106e0610675565b5b600182019050919050565b60008190508160005260206000209050919050565b60006020601f8301049050919050565b600082821b905092915050565b60006008830261074e7fffffffffffffffffffffffffffffffffffffffffffffffffffffffffffffffff82610711565b6107588683610711565b95508019841693508086168417925050509392505050565b6000819050919050565b600061079561079061078b846102cc565b610770565b6102cc565b9050919050565b6000819050919050565b6107af8361077a565b6107c36107bb8261079c565b84845461071e565b825550505050565b600090565b6107d86107cb565b6107e38184846107a6565b505050565b5b81811015610807576107fc6000826107d0565b6001810190506107e9565b5050565b601f82111561084c5761081d816106ec565b61082684610701565b81016020851015610835578190505b61084961084185610701565b8301826107e8565b50505b505050565b600082821c905092915050565b600061086f60001984600802610851565b1980831691505092915050565b6000610888838361085e565b9150826002028217905092915050565b6108a18261033e565b67ffffffffffffffff8111156108ba576108b9610424565b5b6108c48254610644565b6108cf82828561080b565b600060209050601f83116001811461090257600084156108f0578287015190505b6108fa858261087c565b865550610962565b601f198416610910866106ec565b60005b8281101561093857848901518255600182019150602085019450602081019050610913565b868310156109555784890151610951601f89168261085e565b8355505b6001600288020188555050505b50505050505056fea26469706673582212206d762522bdf2d1e5be1a94355cb8e2907a06583b95d960cf26e764d3978b543964736f6c63430008130033",
  "immutableReferences": {},
  "source": "pragma solidity ^0.8.12;\n\ncontract Crowdfunding{\n\nstruct transaction{\n             uint reqid;\n\t     uint policyid;\n\t     uint userid;\n\t     uint amount;\n             string date;\n  }\ntransaction [] alltrans;\nuint total=0;\n\nfunction addTransaction(uint reqida,uint policyida,uint userida, uint amounta,string memory datea) public{\n\ttransaction memory e = transaction(reqida,policyida,userida,amounta,datea);\n\talltrans.push(e);\n \n  }\nfunction viewTransaction(uint reqid) public view returns(uint,uint,uint,string memory){\n\tuint i;\n\t    for(i=0;i<alltrans.length;i++){\n\t\t\ttransaction memory e = alltrans[i];\n\t\t\tif(e.reqid==reqid)\n\t\t\t\t{\n\t\t\t\t\treturn(e.policyid,e.userid,e.amount,e.date);\n\t\t\t\t}\n\n \n                }\n\t\treturn(0,0,0,\"0\");\n  }\n}\n",
  "sourcePath": "C:\\smartcontracts\\contracts\\Crowdfunding.sol",
  "compiler": {
    "name": "solc",
    "version": "0.8.19+commit.7dd6d404.Emscripten.clang"
  },
  "schemaVersion": "3.4.13",
  "updatedAt": "2023-05-16T06:37:20.120Z",
  "devdoc": {
    "kind": "dev",
    "methods": {},
    "version": 1
  },
  "userdoc": {
    "kind": "user",
    "methods": {},
    "version": 1
  }
}